:030000000216B82D
:0C16B800787FE4F6D8FD7581D20216FFA1
:1011D9005245414459004D434B00484D4335393838
:1011E90033004D4D43353838334D41004C534D395B
:1011F9004453310041434B004D524E0059434B007B
:1012090059524E004143434B004143524E00525301
:10121900005200575249544520425954450058003C
:1012290059005A004646460046464E00464E46007C
:10123900464E4E004E4646004E464E004E4E460025
:101249004E4E4E004D48004D4C00414C4600414C1D
:101259005000414C540049443A00484D43004D4D1B
:1012690043004C534D000D0A484D4335393833007E
:10127900000000000000003C0A034834334D4D4390
:10128900353838334D41000000000000602F010C53
:1012990000004D41475F4C534D3944533100000024
:1012A90000380F013D0000414347595F4C534D3908
:1012B900445331000000D40F016800004C534D39EC
:1012C900445331000000000000000000000000004D
:0112D9000014
:091CC9000133000149000134005F
:10002600121CBF121CDDC2977F107E27121C88D2BD
:10003600977F107E27121C88C2B77F107E27121C5E
:1000460088D2B77F107E27121C88C2877F107E2732
:10005600121C88D2877F107E27121C8812099BEFFC
:100066003395E0FE7C007D1512094974712FF974F1
:10007600123E7546FFF5478948120CFB1210CC7BE1
:10008600FF7A1179D97D05121B647BFF7A12796F8D
:100096007D02121B64753554120E5AAF33EF339539
:1000A600E0FEEF64034E600302026FD2867BFF7AA6
:1000B6001179DF7D03121B647BFF7A12796F7D0253
:1000C600121B647569FF756A11756BE312183A5055
:1000D600227898E6FF7870E6FD7BFC12189C7898EB
:1000E600E6FF7871E6FDE4FB12189C7898E6FF7847
:1000F6008A80427569FF756A11756BEB756C09121A
:10010600183D50267898E6FF789BE6FD7B0112188D
:100116009C7898E6FF789EE6FDE4FB12189C78989A
:10012600E6FF78A1E6FD7B41800F121831500D786D
:1001360098E6FF788EE6FDE4FB12189CC2B7AF3353
:10014600EF3395E0FEEF64034E60030201F7756935
:10015600FF756A11756BE312183A50062082460045
:1001660080FA7569FF756A11756BEB756C09121863
:100176003D5016C20220022D7898E6FF7872E6FD01
:10018600121BD9EF13920280EC1218315017C202DB
:100196002002127898E6FF7872E6FD121BD9EFA2CC
:1001A600E3920280EB120E5A7569FF756A11756B40
:1001B600E312183A50087898E6FF78868027756922
:1001C600FF756A11756BEB756C0912183D5008784E
:1001D60098E6FF7884800E121831400302014478B5
:1001E60098E6FF7884E6FDA2009207120B7A0201D8
:1001F600447569FF756A11756BE312183A500C78ED
:1002060098E6FF788AE6FD7B03802C7569FF756AA0
:1002160011756BEB756C0912183D500C7898E6FF5A
:10022600789EE6FD7B80800F121831500D7898E697
:10023600FF788DE6FD7B2412189C7BFF7A1179FDF1
:100246007D03121B647BFF7A12796F7D02121B6499
:100256007BFF7A1179D97D05121B647BFF7A1279AF
:100266006F7D02121B640200A1AF33EF3395E0FEEF
:10027600EF64024E6003020428D2867BFF7A12796D
:10028600017D03121B647BFF7A12796F7D02121BBC
:1002960064E55075F006A485F053F554E4F551F580
:1002A60052D3E5529554E551955340030203F9752F
:1002B60069FF756A11756BE312183A50267898E64D
:1002C600FF7870E6FD7BF012189C7898E6FF78714F
:1002D600E6FDE4FB12189C7898E6FF788AE6FD7B3B
:1002E6008080397569FF756A11756BEB756C09123B
:1002F600183D50197898E6FF789BE6FD7B011218A9
:100306009C7898E6FF789EE6FDE4FB800F12183194
:10031600500D7898E6FF788EE6FD7B0112189C75E5
:1003260069FF756A11756BEB756C0912183D5011F2
:100336007898E6FF7872E6FD121BD9EF13920280D9
:100346001512183150107898E6FF7872E6FD121BE8
:10035600D9EFA2E39202200204C2B7803F200245F1
:100366007569FF756A11756BEB756C0912183D504E
:10037600117898E6FF7872E6FD121BD9EF13920208
:10038600801512183150107898E6FF7872E6FD1243
:100396001BD9EFA2E39202300202D2B77FE87E03B6
:1003A600121C8880B87569FF756A11756BE312189F
:1003B6003A50087898E6FF788680247569FF756A52
:1003C60011756BEB756C0912183D50087898E6FFAD
:1003D6007884800B121831500F7898E6FF7884E6FF
:1003E600FDA2009207120B7A0552E55270020551E2
:1003F6000202A77BFF7A1179FD7D03121B647BFF46
:100406007A12796F7D02121B647BFF7A1179D97D8E
:1004160005121B647BFF7A12796F7D02121B64E45E
:10042600F533AF33EF3395E0FEEF64014E701712EC
:100436000E5AD2867F987E3A121C88C2867F207E0C
:100446004E121C8880DCAF33EF3395E0FEEF640478
:100456004E7007120E5AC28680ECAF33EF3395E02A
:10046600FEEF64054E7007120E5AD28680ECAF4935
:10047600EF3395E0FEEF64034E600302050A7BFF4F
:100486007A1279057D03121B647BFF7A12796F7DE0
:1004960002121B64AF49EF3395E0FEEF64034E7022
:1004A60027C2032003127899E6FF7873E6FD121B34
:1004B600D9EFA2E1920380EB120E5A7899E6FF7803
:1004C60074E6FD12139080CC7898E6FF788DE6FDF1
:1004D6007B2412189C7BFF7A1179FD7D03121B6425
:1004E6007BFF7A12796F7D02121B647BFF7A11798A
:1004F600D97D05121B647BFF7A12796F7D02121B70
:1005060064020474AF49EF3395E0FEEF64024E6077
:10051600030205C07BFF7A1279097D03121B647BF7
:10052600FF7A12796F7D02121B64E55075F006A4FE
:1005360085F055F556E4F551F552D3E5529556E555
:1005460051955550467899E6FF7873E6FD121BD90A
:10055600EFA2E1920320030280132003197899E6A3
:10056600FF7873E6FD121BD9EFA2E192037FE87EC6
:1005760003121C8880E47899E6FF7874E6FD12136E
:10058600900552E55270B3055180AF7BFF7A117921
:10059600FD7D03121B647BFF7A12796F7D02121BAD
:1005A600647BFF7A1179D97D05121B647BFF7A1271
:1005B600796F7D02121B64E4F549AF34EF3395E0A1
:1005C600FEEF64034E60030206547BFF7A12790D38
:1005D6007D04121B647BFF7A12796F7D02121B6405
:1005E600AF34EF3395E0FEEF64034E7025C2012071
:1005F60001117899E6FF7873E6FD121BD9EF139285
:100606000180EC120E5A7899E6FF08E6FD1212DA1E
:1006160080CE7898E6FF788DE6FD7B2412189C7BC9
:10062600FF7A1179FD7D03121B647BFF7A12796FC5
:100636007D02121B647BFF7A1179D97D05121B643A
:100646007BFF7A12796F7D02121B640205C0AF34FC
:10065600EF3395E0FEEF64024E600302009E7BFFDF
:100666007A1279127D04121B647BFF7A12796F7DF0
:1006760002121B64E55075F006A485F057F558E4A0
:10068600F551F552D3E5529558E5519557504378B3
:1006960099E6FF7873E6FD121BD9EF13920120014C
:1006A6000280122001187899E6FF7873E6FD121B86
:1006B600D9EF1392017FE87E03121C8880E57899B2
:1006C600E6FF08E6FD1212DA0552E55270B605514C
:1006D60080B27BFF7A1179FD7D03121B647BFF7A62
:1006E60012796F7D02121B647BFF7A1179D97D0521
:1006F600121B647BFF7A12796F7D02121B64E4F58C
:040706003402009E1B
:100E5A00300403121B3CE54564016003020FADE553
:100E6A00221209750F34410F53440F26460FA54726
:100E7A000FA5490F454D0F2D4E0EAD520E99530E2B
:100E8A00A7540F11570EA1580F4C5900000FAA7FF3
:100E9A002212194E020FAA120FAE020FAA121A71CB
:100EAA00020FAAE5236453703D7569FF756A1175CF
:100EBA006BEB756C0912183D50217898E6FF789B08
:100ECA00E6FD7B0812189C7F107E27121C887898F2
:100EDA00E6FF789BE6FDE4FB12189C7BFF7A127909
:100EEA00177D02020F957BFF7A12791A7D01121B78
:100EFA00647898E6FFAD23121BD98F3E7B007A00F7
:100F0A00793E7D01020F957898E6FFAB24AD231256
:100F1A00189C7BFF7A12791C7D0A806F7F2212143B
:100F2A0041807D7F221216228076E5237F22B443F8
:100F3A0005121BB3806A12174480657F2212199E1C
:100F4A00805E7F22121BFF8057E523645370511283
:100F5A00099B8F59EF3395E0FE7C007D15120949F4
:100F6A0074712FF974123E7546FFF5478948120CC1
:100F7A00FBAF59EF3395E0FE7C007D1512094974E9
:100F8A00712FF974123EFA7BFF7D0F121B647BFFEF
:100F9A007A12796F7D02121B6480057F22121AE28F
:030FAA00E4F54526
:010FAD002221
:091CDD00C283C284C285D28622B2
:0C1CA800759852758921758DFDD28E2231
:10000E00E58954F04401F589D2A9D28C758C4B75D3
:05001E008AFFD2AF22B1
:03000B00021CB420
:0B1CB400C28C758C4B758AFFD28C32FD
:0A1CBF00121CA8D2ACD2BCD2AF2296
:101B3C00E4F55AC2AC121CF78F32E55A65326010CC
:101B4C00AF5A121CE67422255AF8A607055A80EAE9
:071B5C00C204754501D2AC83
:011B6300225F
:10194E008F5AA807E804F8E6643070087898E6FF26
:10195E007BF08020E55A04F8E6643170087898E64A
:10196E00FF7BF1800FE55A04F8E664327021789817
:10197E00E6FF7BF2E4FD12189C7898E6FF7BA07DD3
:10198E000112189C7898E6FFE4FB7D0212189C2247
:100FAE007569FF756A11756BE312183A50087898D7
:100FBE00E6FF788680247569FF756A11756BEB758F
:100FCE006C0912183D50087898E6FF7884800B1251
:100FDE001831500F7898E6FF7884E6FDA20092074C
:100FEE00120B7A7BFF7A1279277D01121B64789897
:100FFE00E6FF7886E6FD1200008F3E7B007A0079D0
:10100E003E7D01121B647F0A7E00121C887898E6D2
:10101E00FF7884E6FD1200008F3E7B007A00793E59
:10102E007D01121B647F0A7E00121C887BFF7A12E0
:10103E0079297D01121B647898E6FF7887E6FD1208
:10104E0000008F3E7B007A00793E7D01121B647F8B
:10105E000A7E00121C887898E6FF7885E6FD12005D
:10106E00008F3E7B007A00793E7D01121B647F0A61
:10107E007E00121C887BFF7A12792B7D01121B6475
:10108E007898E6FF7889E6FD1200008F3E7B007AA5
:10109E0000793E7D01121B647F0A7E00121C887847
:1010AE0098E6FF7888E6FD1200008F3E7B007A00FE
:0E10BE00793E7D01121B647F0A7E00021C88B1
:101441008F5AA807E804F8E624B260342408600340
:101451000214E5E55A2402F8E624B2601524086076
:10146100030214E5C283C284C2857BFF7A12792DFF
:101471008036C283C284D2857BFF7A12793180287B
:10148100E55A2402F8E624B2601224087056C28399
:10149100D284C2857BFF7A127935800CC283D284D3
:1014A100D2857BFF7A1279397D03121B647BFF7A27
:1014B10012796F7D02121B647BFF7A1179FD7D0326
:1014C100121B647BFF7A12796F7D02121B647BFF12
:1014D1007A1179D97D05121B647BFF7A12796F7DB0
:0514E10002121B642251
:10162200EF04F8E624B2602D240860030216B7E541
:101632002424B260122408707CD283C284C2857BC7
:10164200FF7A12793D8032D283C284D2857BFF7ABF
:101652001279418024E52424B2601224087056D203
:1016620083D284C2857BFF7A127945800CD283D2E1
:1016720084D2857BFF7A1279497D03121B647BFF3A
:101682007A12796F7D02121B647BFF7A1179FD7DDC
:1016920003121B647BFF7A12796F7D02121B647B3B
:1016A200FF7A1179D97D05121B647BFF7A12796F5B
:0616B2007D02121B642200
:10199E008F5AA807E804F8E624BD603B24F76012CE
:1019AE0024FA6026240A7037D2007BFF7A12794D12
:1019BE008008C2007BFF7A1279507D02121B647B75
:1019CE00FF7A12796F7D02021B64E55A2402F8E653
:1019DE00F5507533028003753303E4F549F534226F
:101BB300EF2402F8E624BD601424F17018EF240327
:101BC300F8E6F550E4F533F54975340222E4F533CC
:061BD300F5497534032200
:101A7100E4F55A12183150258009AF5AEF3395E039
:101A81004F70127899E6FF7873E6FD121BD9EF5477
:101A910004F55A80E57899E6FF789680067898E60D
:081AA100FF7895E6FD1214E642
:011AA900221A
:101BFF00EF04F8E624BD601424F17018EF2402F806
:101C0F00E6F550E4F533754902F53422E4F5337502
:051C1F004903F5342229
:10174400EF2402F8E624B0601824FC6024240E7010
:101754006A753304E4F549F5347BFF7A12795380D2
:101764001E753301E4F549F5347BFF7A127957800D
:101774000E753305E4F549F5347BFF7A12795B7D08
:1017840003121B647BFF7A12796F7D02121B647B48
:10179400FF7A1179FD7D03121B647BFF7A12796F46
:1017A4007D02121B647BFF7A1179D97D05121B64BB
:0C17B4007BFF7A12796F7D02121B642209
:101AE200EF04F8E6644470287898E6FF7881E6FD12
:101AF200121BD98F5A7BFF7A12795F7D03121B6406
:101B0200AF5A121CD37BFF7A12796F7D02121B64CB
:011B120022B0
:10099B00755A00755B05E4F55CAF5CEF3395E0FED3
:1009AB00C3EF955BE55A6480F8EE648098400302D0
:1009BB000B7790128275F015EF120969EE75F01531
:1009CB00A42583F583E493FEFD3395E0FCD3ED94EE
:1009DB0001EC648094805003020AC4EFFD3395E070
:1009EB00FC90128075F015ED120969EC75F015A4E9
:1009FB002583F583E493FF90128175F015ED1209B1
:100A0B0069EC75F015A42583F583E493FD8E697B62
:100A1B00007A00795D121A34E55CFD3395E0FC90A9
:100A2B00129575F015ED120969EC75F015A4258377
:100A3B00F583E493FF90129675F015ED120969ECAE
:100A4B0075F015A42583F583E493FDE55CFB3395E5
:100A5B00E0FA90129775F015EB120969EA75F0152B
:100A6B00A42583F583E493F5697B007A0079601202
:100A7B001A34AF5CEF3395E0FE7C007D151209490B
:100A8B0074832FF974123EFA7BFF7F5D121AAA4012
:100A9B0003020B72AF5CEF3395E0FE7C007D151209
:100AAB00094974982FF974123EFA7BFF7F60121A72
:100ABB00AA5003020B69AF5C22E55CFD3395E0FCA9
:100ACB0090128075F015ED120969EC75F015A425DF
:100ADB0083F583E493FF90128175F015ED1209698C
:100AEB00EC75F015A42583F583E493FD121BD98FC8
:100AFB0063E55CFD3395E0FC90129575F015ED12F6
:100B0B000969EC75F015A42583F583E493FF901226
:100B1B009675F015ED120969EC75F015A42583F5A2
:100B2B0083E493FD121BD9E55CFD3395E0FC901239
:100B3B008375F015ED120969EC75F015A42583F595
:100B4B0083E493B5632190129875F015ED12096942
:100B5B00EC75F015A42583F583E493B50706E55CE6
:0E0B6B002402FF22AF5C22055C0209A47FFF7A
:010B79002259
:061AAA008B648A65896669
:101AB000756701E4FEC3E5676480F8EE64809850C2
:101AC0001FAB64AA65A966EEFD3395E08D82F583B0
:101AD0001208E8FDEF2EF8ED666002C3220E80D5F5
:011AE000D332
:011AE10022E2
:101831007569FF756A11756BF5756C07AB46AA473B
:02184100A948B4
:061843008B668A678968CC
:101849007F03D3EF6480F8E56C64809840028F6C65
:0E185900E4FFC3E56C6480F8EF6480985033C0
:10186700EFFD3395E0FCE5682DF9E5673C85666D8E
:10187700F56E896FAB69AA6AA96B8D828C83120892
:10188700E8FEAB6DAA6EA96F1208CF6E6002C32285
:041897000F80C1D32A
:01189B00222A
:1010CC007569FF756A11756BE312183A50097BFF4D
:1010DC007A1279630211C87569FF756A11756BEB29
:1010EC00756C0912183D502A7898E6FF789BE6FD3E
:1010FC007B0812189C7F107E27121C887898E6FFBC
:10110C00789BE6FDE4FB12189C7BFF7A1279670250
:10111C0011C812183140030211D87899E6FF787F74
:10112C00E6FD7B0512189C7898E6FF788CE6FD7B33
:10113C001012189C7898E6FF788DE6FD7B2012182B
:10114C009C7898E6FF788FE6FDE4FB12189C789863
:10115C00E6FF7890E6FDE4FB12189C7899E6FF78A0
:10116C008BE6FD7BC012189C7899E6FF787DE6FD36
:10117C00E4FB12189C7899E6FF787AE6FD7B38122E
:10118C00189C7899E6FF7883E6FD7BC012189C7852
:10119C0099E6FF7880E6FD7B1A12189C7899E6FF99
:1011AC00787BE6FD7B3812189C7899E6FF787CE614
:1011BC00FD7BC012189C7BFF7A12796B7D03121B8E
:0D11CC00647BFF7A12796F7D02121B642292
:101C2400484D4335393833004D4D43353838334DFD
:101C340041004C534D3944533100580059005A0067
:051C5E00121C63D2809E
:0F1C6300E4FFFE000FBF00010EEF64024E70F4AD
:011C7200224F
:051CED00D281D280222B
:0D1C9B00D281121C5EC281121C63C2802225
:08000300C281121C5ED28122B1
:0719EE00121C9BEB4401FFFA
:0219F500AD073C
:1019F700E4FCECC394087480948050227801AF050E
:101A0700EF08800123D8FDFD30E004D2818002C2B7
:101A170081D280121C63C280121C630C80D4121CFA
:0C1A27005EA2819209C280121C63A20919
:011A33002290
:101B8C00E4FDFCECC39408748094805017D280124E
:101B9C001C63ED25E0FD308103430501C280121C5E
:061BAC00630C80DFAF05B1
:011BB2002210
:071C7300121B8C8F38C2091F
:0E1C7A00A2099281D280121C63C280D2812204
:06189C008F5B8D5C8B5D8B
:1018A200E4FBEBC3940A748094805033121C9BAF08
:1018B2005B1219F592073007028016AF5C1219F518
:1018C2009207300702800AAF5D1219F592073007BE
:1018D2000512000380061200033007030B80C37F4A
:1018E2000A7E00121C88121C9BAF5B1219F5AF5CBA
:0B18F2001219F5AF5D1219F50200039A
:041BD900AB07AA05A7
:101BDD00E4FD121C9BAF031219F5AF021219F51299
:101BED0019EE121B8CAD07D209121C7A120003AF2D
:011BFD0005E2
:011BFE0022C4
:040B7A00AB07AA0516
:100B7E00E4F55A121C9BAF031219F5AF021219F5C8
:100B8E001219EE92087569FF756A1C756B24756CE7
:100B9E0007AB46AA47A9481218435038121C7312C5
:100BAE001B8C8F39C209121C7A121B8C8F3CC20906
:100BBE00121C7A121B8C8F3DC209121C7A121B8CCE
:100BCE008F3AC209121C7A121B8C8F3BD209121C4F
:100BDE007A020CB17569FF756A1C756B2C756C0900
:100BEE00AB46AA47A9481218435054121B8C8F3992
:100BFE00C209121C7A121C73121B8C8F3BC2091273
:100C0E001C7A121B8C8F3AC209121C7A121B8C8F03
:100C1E003DC209121C7A121B8C8F3CD209121C7A0F
:100C2E00300703020CB61215857B007A00793A1252
:100C3E00158B7B007A00793C12158B7F01806675CF
:100C4E0069FF756A1C756B36756C07AB46AA47A9AA
:100C5E00481218435052121B8C8F39C209121C7A3B
:100C6E00121C73121B8C8F3BC209121C7A121B8C26
:100C7E008F3AC209121C7A121B8C8F3DC209121CAC
:100C8E007A121B8C8F3CD209121C7A20071A12156D
:100C9E00857B007A00793A12158B7B007A00793CBD
:100CAE0012158B7F031218FD1200037BFF7A1C793D
:100CBE003E7D01121B647B007A0079387D02121B87
:100CCE00647BFF7A1C79407D01121B647B007A00E5
:100CDE00793A7D02121B647BFF7A1C79427D0112E8
:0D0CEE001B647B007A00793C7D02021B64D0
:0414E600AB07AA05A1
:1014EA00E4F55B121C9BAF031219F5AF021219F552
:1014FA001219EE7569FF756A1C756B24756C07AB5A
:10150A0046AA47A948121843500C121B8C8F36C2A0
:10151A0009121C7A801A7569FF756A1C756B2C751D
:10152A006C09AB46AA47A948121843500AE4F53693
:10153A00121B8C8F3780267569FF756A1C756B368E
:10154A00756C07AB46AA47A9481218435014121BD8
:10155A008C8F37C209121C7A121B8C8F36D2091251
:10156A001C7A1200037B007A0079357D03121B6412
:0B157A007BFF7A12796F7D02021B6478
:04139000AB07AA05F8
:10139400E4F559121C9BAF031219F5AF021219F5AB
:1013A4001219EE92077569FF756A1C756B36756CB8
:1013B40007AB46AA47A948121843503C121B8C8F0E
:1013C4004BC209121C7A121B8C8F4AC209121C7A56
:1013D400121B8C8F4DC209121C7A121B8C8F4CC2AB
:1013E40009121C7A121B8C8F4FC209121C7A121B11
:1013F4008C8F4ED209121C7A1200037BFF7A1C795F
:101404003E7D01121B647B007A00794A7D02121B27
:10141400647BFF7A1C79407D01121B647B007A0097
:10142400794C7D02121B647BFF7A1C79427D011288
:0D1434001B647B007A00794E7D02021B6470
:0412DA00AB07AA05AF
:1012DE00E4F559121C9BAF031219F5AF021219F562
:1012EE001219EE92077569FF756A1C756B36756C6F
:1012FE0007AB46AA47A9481218435041121B8C8FC0
:10130E0040C209121C7A121B8C8F3FC209121C7A22
:10131E00121B8C8F42C209121C7A121B8C8F41C277
:10132E0009121C7A121B8C8F44C209121C7A121BD2
:10133E008C8F43D209121C7A7F021218FD12000301
:10134E007BFF7A1C793E7D01121B647B007A00794B
:10135E003F7D02121B647BFF7A1C79407D01121BBC
:10136E00647B007A0079417D02121B647BFF7A1C3C
:10137E0079427D01121B647B007A0079437D020263
:02138E001B64DE
:0A1A34008F648D658B668A678968F0
:101A3E00E4F56AC3E5696480F8E56A64809850222B
:101A4E00E565256AFDAF64121BD9AB66AA67A96866
:101A5E00E56AFD3395E08D82F583EF120927056A5D
:021A6E0080D125
:011A70002253
:051CF200EFFEEDFF22F2
:061585007B007A007938BA
:06158B008B5B8A5C895DA8
:101591001208CFFF9000011208E8FD121CF28E5EC6
:1015A1008F5F7569FF756A1C756B2C756C09AB468D
:1015B100AA47A9481218435016E4255FF561E55E74
:1015C1003480F5607565007564407563AB80267580
:1015D10069FF756A1C756B36756C07AB46AA47A91E
:1015E100481218435012855E60855F6175651275FA
:1015F100646F7563CB75623EAC60AD61EC1208152A
:10160100AB65AA64A963A86212070A12084EAB5B14
:10161100AA5CA95D900001EF120927EEFFEF020914
:0116210015B3
:1018FD00EFFD3395E0FCED64014C6006ED64034CA7
:10190D007016E53970047E018008E539F404F53967
:10191D00E4FEE538F42EF538EFFD3395E0FCED648B
:10192D00024C6006ED64034C7016E53D70047E01BB
:10193D008008E53DF404F53DE4FEE53CF42EF53C70
:01194D002277
:101C8800E4FDFCC3ED9FEC9E5008000DBD00010C67
:021C980080F1D9
:011C9A002227
:101B1300200625C2AC200508D205C2998F998016EC
:101B2300AE0B050BEE541F24B3F8A607E50B6509AE
:091B3300541F7002D206D2AC224C
:0A1CD300AD072006FDAF05021B134C
:081B64008B5C8A5D895EAC0513
:101B6C00E4F55FEC6019AB5CAA5DA95EAF5F055F45
:0F1B7C008F827583001208E8FF121CD31C80E4CF
:011B8B002237
:031CF700AF0A220F
:071CE60074A32FF8E6FF22B2
:030023000217C001
:1017C000C0E0C0D075D010309844C2ACE5086410B9
:1017D0006035AF08050874A32FF8A69974A22508F0
:1017E000F8E6FF3395E0FEEF640A4E701D74A12504
:1017F00008F8E6FF3395E0FEEF640D4E700CD2045E
:1018000085080AF5088003750800C298D2AC3099A3
:101810001BC299E509650B6011AF090509EF541F5B
:1018200024B3F8E6F599C2068002C205D0D0D0E014
:011830003285
:101C4400484D4335393833004D4D43353838334DDD
:0A1C540041004C534D394453310058
:100CFB007569FF756A1C756B44756C07AB46AA4723
:100D0B00A94812184350417898763CE47870F678ED
:100D1B00717601788A760278867603788476047801
:100D2B0089760578887606788776077885760878C9
:100D3B007276097891760A7892760B7893760C789E
:100D4B0095763178947632227569FF756A1C756BCE
:100D5B004C756C09AB46AA47A94812184350357815
:100D6B00987660E47884F6788676017885760278D2
:100D7B008776037888760478897605789576067871
:100D8B00727607789B7608789E760978A1760A7832
:100D9B0081762F227569FF756A1C756B56756C070A
:100DAB00AB46AA47A9481218434003020E5978983C
:100DBB00763878847628788676297885762A7887A7
:100DCB00762B7888762C7889762D78727627788CA6
:100DDB007620788D7621788E7622788F7623789090
:100DEB0076247881760F789976D47874761878761D
:100DFB0076197875761A7878761B7877761C7879E9
:100E0B00761D787376177896761578977616788B95
:100E1B007610787D7613787A761E787B761F787CC1
:100E2B007620787E7621787F762278807623788379
:100E3B00762E789A7628789D7629789C762A78A0D3
:0F0E4B00762B789F762C78A2762D7882760F22E0
:10070A00EC4D6011E8497017ED33EC3304600DE4E9
:10071A00FCFFFEFD22E933E8330470F80208BA123E
:10072A00088558046009E4CC24815006285009023F
:10073A0008C42840030208C1C0E0EB4A7044B980EB
:10074A0006D0E0FB0208B0EF4E701CBD8008EBFF3C
:10075A00EAFEE9FD80EBE98DF0A4FEE5F00207F37D
:10076A00E9CDF9EAFEEBFFEF89F0A4FCE5F0CE89CA
:10077A00F0A42EFFE435F0CD89F0A42DFEE435F087
:10078A008067EF4E7005BD80D780C3EF8BF0A4ACB5
:10079A00F0EE8BF0A42CFCE435F0F8EF8AF0A42CF0
:1007AA00E5F038FCE433CB8DF0A42CFCE5F03BF803
:1007BA00EE8AF0A42CFCE5F038F8E433CF89F0A4F3
:1007CA002CFCE5F038CF3400CE89F0A42FFFE5F0F9
:1007DA003EFEE433C98DF0A42EFEE5F039CD8AF051
:1007EA00A42FFFE5F03EFEE43DFD33D0E0FB5007C9
:1007FA000BBB000F0208C4EC2CFCEF33FFEE33FEF8
:06080A00ED33FD02089C25
:1008100075F020800E75F010800575F0087D007E63
:10082000007F003392D530D50312095BEC334010C2
:10083000EF33FFEE33FEED33FDEC33FCD5F0ED226C
:0E084000E5F0247EA2D513CC92E7CDCEFF22A8
:10084E00EDD2E7CD33EC3392D524814006E4FFFEA2
:10085E00FDFC22FCE4CFCECDCC24E0501174FF8001
:10086E00EDC3CC13CCCD13CDCE13CECF13CF04709E
:07087E00F030D5DE02095B3A
:10088500E9D2E7C933E833F892D5EDD2E7CD33ECB9
:0708950033FC5002B2D52232
:10089C00EC30E7100FBF000C0EBE00080DBD0004BD
:1008AC000BEB6014A2D5EB13FCED92E7FD2274FF69
:1008BC00FCFDFEFF22E480F8A2D574FF13FC7D80C2
:0308CC00E480EFD6
:1016C400020026E493A3F8E493A34003F68001F216
:1016D40008DFF48029E493A3F85407240CC8C33327
:1016E400C4540F4420C8834004F456800146F6DFF6
:1016F400E4800B0102040810204080901CC9E47EA1
:10170400019360BCA3FF543F30E509541FFEE493EA
:10171400A360010ECF54C025E060A840B8E493A3B1
:10172400FAE493A3F8E493A3C8C582C8CAC583CADC
:10173400F0A3C8C582C8CAC583CADFE9DEE780BE94
:011CD2000011
:1008CF00BB010689828A83E0225002E722BBFE0227
:0908DF00E32289828A83E493225A
:1008E800BB010CE58229F582E5833AF583E02250C5
:1008F80006E92582F8E622BBFE06E92582F8E2220F
:0D090800E58229F582E5833AF583E4932228
:10091500BB010689828A83F0225002F722BBFE01C1
:02092500F322BB
:10092700F8BB010DE58229F582E5833AF583E8F006
:10093700225006E92582C8F622BBFE05E92582C8B2
:02094700F2229A
:10094900EF8DF0A4A8F0CF8CF0A428CE8DF0A42EC2
:02095900FE227C
:0E095B00C3E49FFFE49EFEE49DFDE49CFC22AD
:0C096900A42582F582E5F03583F5832299
:10097500D083D082F8E4937012740193700DA3A311
:1009850093F8740193F5828883E473740293686025
:06099500EFA3A3A380DF25
:00000001FF
