:100F92005245414459004D434B0041434B004D5291
:100FA2004E0059434B0059524E004143434B0041BE
:100FB20043524E005200575249544520425954451B
:100FC20000580059005A004646460046464E004622
:100FD2004E4600464E4E004E4646004E464E004E8F
:100FE2004E46004E4E4E004D48004D4C00414C4680
:100FF20000414C5000414C540049443A004C534D7E
:03100200000D0AD4
:0915D10001330001460001340061
:1000260012161A12162EC2977F107E27121580D22C
:10003600977F107E27121580C2B77F107E27121574
:1000460080D2B77F107E27121580C2877F107E2749
:10005600121580D2877F107E27121580120F187B0B
:10006600FF7A0F79927D0512141B12160F753554FF
:1000760012076FAF33EF3395E0FEEF64034E7072F5
:10008600D2867BFF7A0F79987D0312141B12160F06
:10009600E4FB7D227F381210DAC2B7AF33EF339517
:1000A600E0FEEF64034E7023C20220020E7D277F1E
:1000B600381214DDEFA2E3920280EF12076FA2005E
:1000C60092077D287F38120AA280D07B247D217F6B
:1000D600381210DA7BFF7A0F799C7D0312141B12FB
:1000E600160F7BFF7A0F79927D0512141B12160FDD
:1000F6008081AF33EF3395E0FEEF64024E6003027A
:1001060001A0D2867BFF7A0F79A07D0312141B1201
:10011600160FE54F75F006A485F052F553E4F55039
:10012600F551D3E5519553E5509552504E7B017DDF
:10013600227F381210DA7D277F381214DDEFA2E312
:100146009202200204C2B7801420021A7D277F384B
:100156001214DDEFA2E39202300202D2B77FE87EEC
:100166000312158080E3A20092077D287F38120AC9
:10017600A20551E55170AB055080A77BFF7A0F7938
:100186009C7D0312141B12160F7BFF7A0F79927D4A
:100196000512141B12160FE4F533AF33EF3395E057
:1001A600FEEF64014E701712076FD2867F987E3A73
:1001B600121580C2867F207E4E12158080DCAF33FA
:1001C600EF3395E0FEEF64044E700712076FC286A8
:1001D60080ECAF33EF3395E0FEEF64054E70071207
:1001E600076FD28680ECAF33EF3395E0FEEF6406FF
:1001F6004E700312076FAF46EF3395E0FEEF6403D0
:100206004E70617BFF7A0F79A47D0312141B1216C0
:100216000FAF46EF3395E0FEEF64034E701FC20347
:1002260020030E7D177FD41214DDEFA2E192038026
:10023600EF12076F7D187FD4120CF080D47B247DDB
:10024600217F381210DA7BFF7A0F799C7D03121416
:100256001B12160F7BFF7A0F79927D0512141B1263
:10026600160F8092AF46EF3395E0FEEF64024E60C4
:10027600030202FC7BFF7A0F79A87D0312141B127E
:10028600160FE54F75F006A485F054F555E4F550C4
:10029600F551D3E5519555E5509554503A7D177F64
:1002A600D41214DDEFA2E19203200302800F200393
:1002B600157D177FD41214DDEFA2E192037FE87E4D
:1002C6000312158080E87D187FD4120CF00551E5E5
:1002D6005170BF055080BB7BFF7A0F799C7D03125E
:1002E600141B12160F7BFF7A0F79927D0512141BD1
:1002F60012160FE4F546AF34EF3395E0FEEF6403D4
:100306004E70607BFF7A0F79AC7D0412141B1216B7
:100316000FAF34EF3395E0FEEF64034E701EC2015B
:1003260020010D7D177FD41214DDEF13920180F0AA
:1003360012076F7D287FD4120C5180D57B247D2136
:100346007F381210DA7BFF7A0F799C7D0312141B1B
:1003560012160F7BFF7A0F79927D0512141B121667
:100366000F8093AF34EF3395E0FEEF64024E6003E7
:100376000200767BFF7A0F79B17D0412141B1216E8
:100386000FE54F75F006A485F056F557E4F550F5E0
:1003960051D3E5519557E550955650387D177FD482
:1003A6001214DDEF139201200102800E2001147D4C
:1003B600177FD41214DDEF1392017FE87E03121526
:1003C6008080E97D287FD4120C510551E55170C11A
:1003D600055080BD7BFF7A0F799C7D0312141B129A
:1003E600160F7BFF7A0F79927D0512141B12160FDA
:0603F600E4F5340200767C
:10076F00E4F55A3004081213C8EF24FEF55AE54594
:10077F006401600302091FAF33EF3395E0FEEF64AE
:10078F00064E7048C3E55A940274809480403DE54C
:10079F004E940CE54D94005033AD22AF4EAE4D123A
:1007AF0014B7054EE54E7002054DAD23FFAE4D1249
:1007BF0014B7054EE54E7002054DE523AD22FCE55D
:1007CF004DC313E54E1325E0248C805CAF33EF331C
:1007DF0095E0FEEF64074E705AC3E55A9402748099
:1007EF009480404FE54E940CE54D94005045E54EF6
:1007FF00240BFFE4354DFEAD221214B7054EE54E26
:10080F007002054D240BFFE4354DFEAD231214B7D6
:10081F00054EE54E7002054DE523AD22FCE54DC3B7
:10082F0013E54E1325E02474F8A60408A6057F06E9
:10083F00121624E5221206F408D44108FA4508C618
:10084F004608F34708F34908E54D08CD4E08865290
:10085F0008725308805408AD57087A5808EC5900AD
:10086F0000091C7F221212A002091C120B8302091D
:10087F001C12154C02091CE5236453700302091C5A
:10088F007BFF7A0F79B67D0112141BAD237F3812CF
:10089F0014DD8F3E7B007A00793E7D018011AB2401
:1008AF00AD237F381210DA7BFF7A0F79B87D0A12E9
:1008BF00141B12160F80567F22120E16804F7F22A6
:1008CF00120E9D8048E5237F22B4430512149180B8
:1008DF003C12107680377F2212118C80307F2212CB
:1008EF00150380297F221215288022E52324A97061
:1008FF001C7F06121624E524B44D057533068008B7
:10090F00E524B44703753307E4F54DF54EE4F5459B
:01091F0022B5
:09162E00C283C284C285D2862267
:0C15F800759852758921758DFDD28E22E8
:10000E00E58954F04401F589D2A9D28C758C4B75D3
:05001E008AFFD2AF22B1
:03000B00021604D6
:0B160400C28C758C4B758AFFD28C32B3
:0A161A001215F8D2ACD2BCD2AF22F8
:1013C800E4F55BC2AC12164E8F32E55B65326010F5
:1013D800AF5B1216377422255BF8A607055B80EA17
:0913E800C204754501D2ACAF5BF3
:0113F10022D9
:1012A0008F5BA807E804F8E6B430047BF08016E50D
:1012B0005B04F8E6B431047BF1800AE55B04F8E6F0
:1012C000B4321B7BF2E4FD7F381210DA7BA07D0183
:0F12D0007F381210DAE4FB7D027F381210DA2229
:100B8300A20092077D287F38120AA27BFF7A0F7991
:100B9300C37D0112141B7D297F381200008F3E7B19
:100BA300007A00793E7D0112141B7F0A7E00121524
:100BB300807D287F381200008F3E7B007A00793ECB
:100BC3007D0112141B7F0A7E001215807BFF7A0FB2
:100BD30079C57D0112141B7D2B7F381200008F3ED7
:100BE3007B007A00793E7D0112141B7F0A7E00127E
:100BF30015807D2A7F381200008F3E7B007A0079B2
:100C03003E7D0112141B7F0A7E001215807BFF7A42
:100C13000F79C77D0112141B7D2D7F381200008FC1
:100C23003E7B007A00793E7D0112141B7F0A7E0011
:100C33001215807D2C7F381200008F3E7B007A00D6
:0E0C4300793E7D0112141B7F0A7E000215808F
:100E16008F5BA807E804F8E624B2602E24087076F3
:100E2600E55B2402F8E624B2601224087068C283E7
:100E3600C284C2857BFF7A0F79C98036C283C28499
:100E4600D2857BFF7A0F79CD8028E55B2402F8E610
:100E560024B260122408703EC283D284C2857BFF0E
:100E66007A0F79D1800CC283D284D2857BFF7A0F28
:100E760079D57D0312141B12160F7BFF7A0F799C0E
:100E86007D0312141B12160F7BFF7A0F79927D05D4
:070E960012141B12160F22BB
:100E9D00EF04F8E624B2602A2408706EE52424B22B
:100EAD00601224087064D283C284C2857BFF7A0FDE
:100EBD0079D98032D283C284D2857BFF7A0F79DDD6
:100ECD008024E52424B260122408703ED283D2849B
:100EDD00C2857BFF7A0F79E1800CD283D284D285D3
:100EED007BFF7A0F79E57D0312141B12160F7BFF22
:100EFD007A0F799C7D0312141B12160F7BFF7A0F4C
:0B0F0D0079927D0512141B12160F22B2
:10118C008F5BA807E804F8E624BD603324F76012EF
:10119C0024FA601E240A702FD2007BFF7A0F79E9A3
:1011AC008008C2007BFF7A0F79EC7D0212141B02BF
:1011BC00160FE55B2402F8E6F54F753302800375D4
:0811CC003303E4F546F534227B
:10149100EF2402F8E624BD601424F17018EF240350
:1014A100F8E6F54FE4F533F54675340222E4F533F9
:0614B100F546753403222C
:10154C00E48008EFFD3395E04D700D7D177FD412CC
:0F155C0014DDEF5404FF80EB7D157FD402121ACB
:10150300EF04F8E624BD601424F17018EF2402F808
:10151300E6F54FE4F533754602F53422E4F5337509
:051523004603F534222F
:10107600EF2402F8E624B0601824FC6024240E70E5
:1010860052753304E4F546F5347BFF7A0F79EF8029
:101096001E753301E4F546F5347BFF7A0F79F3804C
:1010A6000E753305E4F546F5347BFF7A0F79F77D47
:1010B6000312141B12160F7BFF7A0F799C7D031205
:1010C600141B12160F7BFF7A0F79927D0512141BE3
:0410D60012160F22BD
:10152800EF04F8E6B4441C7D0F7F381214DD8F5B9E
:101538007BFF7A0F79FB7D0312141BAF5B12162415
:0315480012160F69
:01154B00227D
:06135B008B188A19891AA3
:10136100751B01E4FEC3E51B6480F8EE64809850B0
:101371001FAB18AA19A91AEEFD3395E08D82F583EA
:101381001205DAFDEF2EF8ED666002C3220E80D55C
:01139100D388
:011392002238
:100F18007B057D227FD41210DA7B107D207F38126A
:100F280010DA7B207D217F381210DAE4FB7D237FE5
:100F3800381210DAE4FB7D247F381210DA7BC07D8A
:100F4800107FD41210DAE4FB7D137FD41210DA7B01
:100F5800387D1E7FD41210DA7BC07D2E7FD412100C
:100F6800DA7B387D1F7FD41210DA7BC07D207FD4D6
:100F78001210DA7B1A7D237FD41210DA7BFF7A0FE6
:0A0F880079FF7D0312141B02160FFF
:0B160F007BFF7A1079037D0202141BA0
:03000000020D8A64
:0C0D8A00787FE4F6D8FD7581D3020DD10E
:0315DA00010F00FE
:101393008E728F731215937FA01212DFE572FF1204
:1013A30012DFAF73E5731212DF1215937FA11212CE
:1013B300DF12146A780FA607D20A1215C31215EBAF
:0513C300780FE6FF2297
:1014B7008E5B8F5C8D5D1216491215937FA01212F9
:1014C700DFE55BFF1212DFAF5CE55C1212DFAF5D99
:0614D7001212DF0215EB0A
:06163E00580059005A009B
:05156B00121570D28092
:0F157000E4FFFE000FBF00010EEF64024E70F4A7
:01157F002249
:05164400D281D28022DA
:05164900D291D29022B5
:0D15DE00D28112156BC281121570C28022DD
:10159300D291121570D290121570C291121570C2A9
:0215A300902294
:08000300C28112156BD28122AB
:0D15EB00C291121570D290121570D291228B
:0711D4001215DEEB4401FFE0
:0211DB00AD075E
:1011DD00E4FCECC394087480948050227801AF0530
:1011ED00EF08800123D8FDFD30E004D2818002C2DA
:1011FD0081D280121570C2801215700C80D4121518
:0C120D006BA2819209C280121570A20928
:0112190022B2
:0212DF00AD0759
:1012E100E4FCECC394087480948050227801AF052B
:1012F100EF08800123D8FDFD30E004D2918002C2C5
:1013010091D290121570C2901215700C80D4D290A7
:0C131100121570A2919207C29000A20772
:01131D0022AD
:10144300E4FDFCECC39408748094805017D280129E
:101453001570ED25E0FD308103430501C2801215AF
:06146300700C80DFAF05F4
:011469002260
:10146A00E4FDFCECC39408748094805017D2901267
:10147A001570ED25E0FD309103430501C290121568
:06148A00700C80DFAF05CD
:011490002239
:0E15B500A2099281D280121570C280D28122CA
:0E15C300A20A9291D290121570C290D291227B
:0610DA008F5C8D5D8B5E52
:1010E000E4FBEBC3940A7480948050331215DEAF96
:1010F0005C1211DB92073007028016AF5D1211DB24
:101100009207300702800AAF5E1211DB92073007A8
:101110000512000380061200033007030B80C37F13
:101120000A7E001215801215DEAF5C1211DBAF5D76
:0B1130001211DBAF5E1211DB020003A6
:0414DD00AB07AA05AA
:1014E100E4FD1215DEAF031211DBAF021211DB12A4
:1014F10011D4121443AD07D2091215B5120003AF6E
:0115010005E4
:0115020022C6
:040AA200AB07AA05EF
:100AA600E4F55B1215DEAF031211DBAF021211DBA8
:100AB6001211D492081214438F39C2091215B512B5
:100AC60014438F38C2091215B51214438F3BC2095D
:100AD6001215B51214438F3AC2091215B5121443F2
:100AE6008F3DC2091215B51214438F3CD209121557
:100AF600B5755F0075600075613A756200756300D3
:100B060075643C75650075660075678C7B007A00B8
:100B160079381209202007207B007A0079381212D2
:100B26005E7B007A00793A12125E7B007A00793C8D
:100B360012125E7F0312113B1200037BFF7A1679B5
:100B46003E7D0112141B7B007A0079387D02121457
:100B56001B7BFF7A1679407D0112141B7B007A00FD
:100B6600793A7D0212141B7BFF7A1679427D0112B7
:0D0B7600141B7B007A00793C7D0202141BE9
:04121A00AB07AA056F
:10121E00E4F55B1215DEAF031211DBAF021211DB28
:10122E001211D41214438F37C2091215B51214437A
:10123E008F36D2091215B51200037B007A0079356C
:10124E007D0312141B7BFF7A1079037D0202141B9F
:040CF000AB07AA059F
:100CF400E4F5591215DEAF031211DBAF021211DB5A
:100D04001211D492071214438F48C2091215B51256
:100D140014438F47C2091215B51214438F4AC209EE
:100D24001215B51214438F49C2091215B512144392
:100D34008F4CC2091215B51214438F4BD2091215E8
:100D4400B51200037BFF7A16793E7D0112141B7BDA
:100D5400007A0079477D0212141B7BFF7A167940D2
:100D64007D0112141B7B007A0079497D0212141B49
:100D74007BFF7A1679427D0112141B7B007A00797D
:060D84004B7D0202141B6E
:040C5100AB07AA053E
:100C5500E4F5591215DEAF031211DBAF021211DBF9
:100C65001211D492071214438F40C2091215B512FE
:100C750014438F3FC2091215B51214438F42C2099E
:100C85001215B51214438F41C2091215B51214433A
:100C95008F44C2091215B51214438F43D209121598
:100CA500B57F0212113B1200037BFF7A16793E7D58
:100CB5000112141B7B007A00793F7D0212141B7B05
:100CC500FF7A1679407D0112141B7B007A00794169
:100CD5007D0212141B7BFF7A1679427D0112141BCB
:0B0CE5007B007A0079437D0202141BA3
:0A131E008F088D098B0A8A0B890CD9
:10132800E4F50EC3E50D6480F8E50E64809850225C
:10133800E509250EFDAF081214DDAB0AAA0BA90CAE
:10134800E50EFD3395E08D82F583EF120619050E43
:0213580080D142
:01135A002270
:0B15A5001205C1FF9000011205DAFDE5
:0515B000EFFEEDFF223B
:06125E008B5C8A5D895ED5
:101264001215A5AB07AA0675621275616F7560CB7E
:10127400755F3EAD07AC06EC120507AB62AA61A927
:1012840060A85F1203FC120540AB5CAA5DA95E90E6
:0C1294000001EF120619EEFFEF02060742
:060920008B5C8A5D895E1C
:100926001215A58E688F69AB5FAA60A9611215A51D
:100936008E6A8F6BAB62AA63A9641215A58E6C8F43
:100946006DAB65AA66A9679000021206AEFDACF013
:10095600AE6AAF6B12063BC006C007120683FDAC3B
:10096600F0AE68AF6912063BD0E02FFDD0E03EFC4A
:10097600C004C0059000041206AEFDACF0AE6CAF2C
:100986006D12063BD0E02FFFD0E03EFE900006122F
:1009960006AE2FFFEE35F0FE7C007D6412064D8E0E
:1009A6006E8F6F90000A1206AEFDACF0AE6AAF6BAA
:1009B60012063BC006C0079000081206AEFDACF05A
:1009C600AE68AF6912063BD0E02FFDD0E03EFCC01A
:1009D60004C00590000C1206AEFDACF0AE6CAF6D17
:1009E60012063BD0E02FFFD0E03EFE90000E12062E
:1009F600AE2FFFEE35F0FE7C007D6412064D8E7044
:100A06008F719000121206AEFDACF0AE6AAF6B129B
:100A1600063BC006C0079000101206AEFDACF0AE55
:100A260068AF6912063BD0E02FFDD0E03EFCC00463
:100A3600C0059000141206AEFDACF0AE6CAF6D12A0
:100A4600063BD0E02FFFD0E03EFE9000161206AE29
:100A56002FFFEE35F0FE7C007D6412064DAD07AB30
:100A66005CAA5DA95E900001E56F120619E56EFFAE
:100A7600EF120607AB5FAA60A961900001E571124B
:100A86000619E570FFEF120607AB62AA63A9649028
:0C0A96000001ED120619EEFFEF0206074A
:10113B00EFFD3395E0FCED64014C6006ED64034C70
:10114B007016E53970047E018008E539F404F53931
:10115B00E4FEE538F42EF538EFFD3395E0FCED6455
:10116B00024C6006ED64034C7016E53D70047E0185
:10117B008008E53DF404F53DE4FEE53CF42EF53C3A
:01118B002241
:10158000E4FDFCC3ED9FEC9E5008000DBD00010C76
:0215900080F1E8
:011592002236
:1013F200200625C2AC200508D205C2998F99801615
:10140200AE1F051FEE541F24B4F8A607E51F651D85
:09141200541F7002D206D2AC2274
:0A162400AD072006FDAF050213F22A
:08141B008B5C8A5D895EAC0563
:10142300E4F55FEC6019AB5CAA5DA95EAF5F055F95
:0F1433008F827583001205DAFF1216241C80E4E5
:011442002287
:03164E00AF1E22AA
:0716370074A42FF8E6FF2266
:03002300021005C3
:10100500C0E0C0D075D010309844C2ACE51C641067
:101015006035AF1C051C74A42FF8A69974A3251C74
:10102500F8E6FF3395E0FEEF640A4E701D74A225C5
:101035001CF8E6FF3395E0FEEF640D4E700CD2040C
:10104500851C1EF51C8003751C00C298D2AC309916
:101055001BC299E51D651F6011AF1D051DEF541FCE
:1010650024B4F8E6F599C2068002C205D0D0D0E0D6
:011075003248
:1003FC00EC4D6011E8497017ED33EC3304600DE4FB
:10040C00FCFFFEFD22E933E8330470F80205AC1260
:10041C00057758046009E4CC248150062850090261
:10042C0005B62840030205B3C0E0EB4A7044B9801E
:10043C0006D0E0FB0205A2EF4E701CBD8008EBFF5E
:10044C00EAFEE9FD80EBE98DF0A4FEE5F00204E59F
:10045C00E9CDF9EAFEEBFFEF89F0A4FCE5F0CE89DB
:10046C00F0A42EFFE435F0CD89F0A42DFEE435F098
:10047C008067EF4E7005BD80D780C3EF8BF0A4ACC6
:10048C00F0EE8BF0A42CFCE435F0F8EF8AF0A42C01
:10049C00E5F038FCE433CB8DF0A42CFCE5F03BF814
:1004AC00EE8AF0A42CFCE5F038F8E433CF89F0A404
:1004BC002CFCE5F038CF3400CE89F0A42FFFE5F00A
:1004CC003EFEE433C98DF0A42EFEE5F039CD8AF062
:1004DC00A42FFFE5F03EFEE43DFD33D0E0FB5007DA
:1004EC000BBB000F0205B6EC2CFCEF33FFEE33FE1A
:0604FC00ED33FD02058E48
:1005020075F020800E75F010800575F0087D007E74
:10051200007F003392D530D5031206E6EC3340104B
:10052200EF33FFEE33FEED33FDEC33FCD5F0ED227D
:0E053200E5F0247EA2D513CC92E7CDCEFF22B9
:10054000EDD2E7CD33EC3392D524814006E4FFFEB3
:10055000FDFC22FCE4CFCECDCC24E0501174FF8012
:10056000EDC3CC13CCCD13CDCE13CECF13CF0470AF
:07057000F030D5DE0206E6C3
:10057700E9D2E7C933E833F892D5EDD2E7CD33ECCA
:0705870033FC5002B2D52243
:10058E00EC30E7100FBF000C0EBE00080DBD0004CE
:10059E000BEB6014A2D5EB13FCED92E7FD2274FF7A
:1005AE00FCFDFEFF22E480F8A2D574FF13FC7D80D3
:0305BE00E480EFE7
:100D9600020026E493A3F8E493A34003F68001F24D
:100DA60008DFF48029E493A3F85407240CC8C3335E
:100DB600C4540F4420C8834004F456800146F6DF2D
:100DC600E4800B01020408102040809015D1E47ED7
:100DD600019360BCA3FF543F30E509541FFEE49322
:100DE600A360010ECF54C025E060A840B8E493A3E9
:100DF600FAE493A3F8E493A3C8C582C8CAC583CA14
:100E0600F0A3C8C582C8CAC583CADFE9DEE780BECB
:0115DD00000D
:1005C100BB010689828A83E0225002E722BBFE0238
:0905D100E32289828A83E493226B
:1005DA00BB010CE58229F582E5833AF583E02250D6
:1005EA0006E92582F8E622BBFE06E92582F8E22220
:0D05FA00E58229F582E5833AF583E493223A
:10060700BB010689828A83F0225002F722BBFE01D2
:02061700F322CC
:10061900F8BB010DE58229F582E5833AF583E8F017
:10062900225006E92582C8F622BBFE05E92582C8C3
:02063900F222AB
:10063B00EF8DF0A4A8F0CF8CF0A428CE8DF0A42ED3
:02064B00FE228D
:10064D00C2D5EC30E709B2D5E4C39DFDE49CFCEEC8
:10065D0030E715B2D5E4C39FFFE49EFE12071AC31F
:10066D00E49DFDE49CFC800312071A30D507C3E41A
:06067D009FFFE49EFE2237
:10068300BB010A89828A83E0F5F0A3E02250068742
:10069300F009E71922BBFE07E3F5F009E319228904
:0B06A300828A83E493F5F07401932237
:1006AE00BB0110E58229F582E5833AF583E0F5F08A
:1006BE00A3E0225009E92582F886F008E622BBFE67
:1006CE000AE92582F8E2F5F008E222E5832AF583AD
:0806DE00E993F5F0A3E9932272
:0E06E600C3E49FFFE49EFEE49DFDE49CFC2225
:1006F400D083D082F8E4937012740193700DA3A395
:1007040093F8740193F5828883E4737402936860A8
:06071400EFA3A3A380DFA8
:10071A00BC000BBE0029EF8DF084FFADF022E4CCC3
:10072A00F875F008EF2FFFEE33FEEC33FCEE9DEC8C
:10073A00984005FCEE9DFE0FD5F0E9E4CEFD22EDD2
:10074A00F8F5F0EE8420D21CFEADF075F008EF2F1C
:10075A00FFED33FD4007985006D5F0F222C398FD0D
:05076A000FD5F0EA22AA
:00000001FF
