:100F2B005245414459004D434B004C534D394453AA
:100F3B00310041434B004D524E0059434B00595227
:100F4B004E004143434B004143524E005200575217
:100F5B0049544520425954450057726974652073B2
:100F6B007563636573730057726974652066616995
:100F7B006C75726500454550524F4D206F70657210
:100F8B006174696F6E20696E74726F6475637469D6
:100F9B006F6E2E00580059005A00464646004646D2
:100FAB004E00464E4600464E4E004E4646004E46BE
:100FBB004E004E4E46004E4E4E004D48004D4C00DE
:100FCB00414C4600414C5000414C540049443A00BE
:100FDB004C534D000D0A4D41475F4C534D39445313
:100FEB003100000000380F013D0000414347595FBD
:100FFB004C534D39445331000000D40F01680000AD
:10100B004C534D39445331000000000000000000E8
:05101B000000000000D0
:091DCC000133000149000134005B
:1004ED00121E15121E29C2977F107E27121D7DD256
:1004FD00977F107E27121D7DC2B77F107E27121D9C
:10050D007DD2B77F107E27121D7DC2877F107E277B
:10051D00121D7DD2877F107E27121D7D120D4CEF8F
:10052D003395E0FE7C007D1512047674E12FF9748D
:10053D000F3E7546FFF54789481211E31213547BA0
:10054D00FF7A0F792B7D05121C5B121E0A7535542F
:10055D00120B62AF33EF3395E0FEEF64034E600391
:10056D00020607D2867BFF7A0F79317D03121C5B61
:10057D00121E0A1216B7500D7899E6FF788FE6FD18
:10058D00E4FB1217F0C2B7AF33EF3395E0FEEF6423
:10059D00034E70351216B75017C202200212789909
:1005AD00E6FF7873E6FD121D1DEFA2E3920280EBCC
:1005BD00120B621216B750CF7899E6FF7885E6FDDB
:1005CD00A200920712110F80BE1216B7500D789926
:1005DD00E6FF788EE6FD7B241217F07BFF7A0F790C
:1005ED003D7D03121C5B121E0A7BFF7A0F792B7D5A
:1005FD0005121C5B121E0A020560AF33EF3395E046
:10060D00FEEF64024E60030206D4D2867BFF7A0FA2
:10061D0079417D03121C5B121E0AE55075F006A48C
:10062D0085F053F554E4F551F552D3E5529554E563
:10063D0051955350731216B7500D7899E6FF788F78
:10064D00E6FD7B011217F01216B750107899E6FFF0
:10065D007873E6FD121D1DEFA2E39202200204C283
:10066D00B7801D2002231216B750107899E6FF7837
:10067D0073E6FD121D1DEFA2E39202300202D2B706
:10068D007FE87E03121D7D80DA1216B7500F789920
:10069D00E6FF7885E6FDA200920712110F0552E5DF
:1006AD0052700205510206377BFF7A0F793D7D03AB
:1006BD00121C5B121E0A7BFF7A0F792B7D05121C13
:1006CD005B121E0AE4F533AF33EF3395E0FEEF64B2
:1006DD00014E7017120B62D2867F987E3A121D7DE5
:1006ED00C2867F207E4E121D7D80DCAF33EF3395A9
:1006FD00E0FEEF64044E7007120B62C28680ECAF11
:10070D0033EF3395E0FEEF64054E7007120B62D2A6
:10071D008680ECAF49EF3395E0FEEF64034E706DCC
:10072D007BFF7A0F79457D03121C5B121E0AAF49C0
:10073D00EF3395E0FEEF64034E7027C203200312E2
:10074D00789AE6FF7874E6FD121D1DEFA2E1920383
:10075D0080EB120B62789AE6FF7875E6FD121407AE
:10076D0080CC7899E6FF788EE6FD7B241217F07B1E
:10077D00FF7A0F793D7D03121C5B121E0A7BFF7AF7
:10078D000F792B7D05121C5B121E0A8086AF49EF77
:10079D003395E0FEEF64024E60030208387BFF7A6A
:1007AD000F79497D03121C5B121E0AE55075F00688
:1007BD00A485F055F556E4F551F552D3E55295560D
:1007CD00E55195555046789AE6FF7874E6FD121D71
:1007DD001DEFA2E192032003028013200319789AE2
:1007ED00E6FF7874E6FD121D1DEFA2E192037FE88E
:1007FD007E03121D7D80E4789AE6FF7875E6FD1282
:10080D0014070552E55270B3055180AF7BFF7A0F87
:10081D00793D7D03121C5B121E0A7BFF7A0F792B2B
:10082D007D05121C5B121E0AE4F549AF34EF3395BA
:10083D00E0FEEF64034E706B7BFF7A0F794D7D0404
:10084D00121C5B121E0AAF34EF3395E0FEEF64030A
:10085D004E7025C201200111789AE6FF7874E6FDED
:10086D00121D1DEF13920180EC120B62789AE6FFB8
:10087D0008E6FD12129E80CE7899E6FF788EE6FD91
:10088D007B241217F07BFF7A0F793D7D03121C5BE1
:10089D00121E0A7BFF7A0F792B7D05121C5B121E2F
:1008AD000A8088AF34EF3395E0FEEF64024E6003AB
:1008BD0002055D7BFF7A0F79527D04121C5B121EBF
:1008CD000AE55075F006A485F057F558E4F551F595
:1008DD0052D3E5529558E55195575043789AE6FF16
:1008ED007874E6FD121D1DEF139201200102801296
:1008FD00200118789AE6FF7874E6FD121D1DEF139E
:10090D0092017FE87E03121D7D80E5789AE6FF084F
:10091D00E6FD12129E0552E55270B6055180B27B6E
:10092D00FF7A0F793D7D03121C5B121E0A7BFF7A45
:10093D000F792B7D05121C5B121E0AE4F53402059E
:01094D005D4C
:100B6200E4F55A300408121BE0EF24FEF55AE5457D
:100B720064016003020D4BE5221204C70C10410C04
:100B820033440C83450C00460C7B470C7B490C23F9
:100B92004D0C084E0BC0520BAC530BBA540BEA5718
:100BA2000BB4580C2B5900000D487F221218FD027D
:100BB2000D48121020020D48121B3A020D48E5237F
:100BC20064537003020D487BFF7A0F79577D01123F
:100BD2001C5B7899E6FFAD23121D1D8F3E7B007AC8
:100BE20000793E7D01020D427899E6FFAB24AD23E8
:100BF2001217F07BFF7A0F79597D0A020D427F228C
:100C0200121544020D487F221215CB020D48E5232E
:100C12007F22B44306121CD1020D4812178C020D1A
:100C2200487F22121A30020D487F22121D43020D04
:100C320048E52364536003020D48120D4C8F59EFAF
:100C42003395E0FE7C007D1512047674E12FF97471
:100C52000F3E7546FFF54789481211E3AF59EF334E
:100C620095E0FE7C007D1512047674E12FF9740F75
:100C72003EFA7BFF7D0F020D427F22121C33020DD2
:100C820048E52324C17003020D3A24ED7003020DDE
:100C92002624FB6003020D48E524C394305003026E
:100CA2000D48E524D394334003020D48E525C3944F
:100CB200305003020D48E525D394324003020D481B
:100CC200E526643D6003020D48FB7A007922755FD8
:100CD2000F7D0512094E78181204AF7F007EC07D89
:100CE200797CC478181204A21202C4602AE5242472
:100CF200D0FFC007E52524D0FDC005781812049660
:100D02008F608E5F8D5E8C5DD005D00712194D7B92
:100D1200FF7A0F796480067BFF7A0F79727D0D125C
:100D22001C5B8022E52524D0FFE52624D0FD121984
:100D3200E778181204AF800E7BFF7A0F79807D1E50
:090D4200121C5B121E0AE4F545C7
:010D4B002285
:091E2900C283C284C285D2862264
:0C1DF300759852758921758DFDD28E22E5
:10000E00E58954F04401F589D2A9D28C758C4B75D3
:05001E008AFFD2AF22B1
:03000B00021DFFD4
:0B1DFF00C28C758C4B758AFFD28C32B1
:0A1E1500121DF3D2ACD2BCD2AF22F2
:101BE000E4F55BC2AC121E508F32E55B65326010CB
:101BF000AF5B121E3A7422255BF8A607055B80EAEC
:091C0000C204754501D2ACAF5BD2
:011C090022B8
:1018FD008F5BA807E804F8E6643070087899E6FF76
:10190D007BF08020E55B04F8E6643170087899E699
:10191D00FF7BF1800FE55B04F8E664327021789966
:10192D00E6FF7BF2E4FD1217F07899E6FF7BA07DD0
:10193D00011217F07899E6FFE4FB7D021217F022F1
:101020001216B7500F7899E6FF7885E6FDA2009278
:101030000712110F7BFF7A0F799F7D01121C5B78DD
:1010400099E6FF7887E6FD1200008F3E7B007A006C
:10105000793E7D01121C5B7F0A7E00121D7D78990E
:10106000E6FF7885E6FD1200008F3E7B007A00796E
:101070003E7D01121C5B7F0A7E00121D7D7BFF7A84
:101080000F79A17D01121C5B7899E6FF7888E6FD57
:101090001200008F3E7B007A00793E7D01121C5BBE
:1010A0007F0A7E00121D7D7899E6FF7886E6FD12A4
:1010B00000008F3E7B007A00793E7D01121C5B7F31
:1010C0000A7E00121D7D7BFF7A0F79A37D01121C21
:1010D0005B7899E6FF788AE6FD1200008F3E7B0080
:1010E0007A00793E7D01121C5B7F0A7E00121D7D15
:1010F0007899E6FF7889E6FD1200008F3E7B007A42
:0F11000000793E7D01121C5B7F0A7E00021D7D7F
:101544008F5BA807E804F8E624B2602E24087076BE
:10155400E55B2402F8E624B2601224087068C283B2
:10156400C284C2857BFF7A0F79A58036C283C28488
:10157400D2857BFF7A0F79A98028E55B2402F8E6FF
:1015840024B260122408703EC283D284C2857BFFD9
:101594007A0F79AD800CC283D284D2857BFF7A0F17
:1015A40079B17D03121C5B121E0A7BFF7A0F793D11
:1015B4007D03121C5B121E0A7BFF7A0F792B7D05BB
:0715C400121C5B121E0A223B
:1015CB00EF04F8E624B2602A2408706EE52424B2F6
:1015DB00601224087064D283C284C2857BFF7A0FA9
:1015EB0079B58032D283C284D2857BFF7A0F79B9E9
:1015FB008024E52424B260122408703ED283D28466
:10160B00C2857BFF7A0F79BD800CD283D284D285C1
:10161B007BFF7A0F79C17D03121C5B121E0A7BFFC5
:10162B007A0F793D7D03121C5B121E0A7BFF7A0F2A
:0B163B00792B7D05121C5B121E0A2299
:101A30008F5BA807E804F8E624BD603324F7601242
:101A400024FA601E240A702FD2007BFF7A0F79C51A
:101A50008008C2007BFF7A0F79C87D02121C5B02EE
:101A60001E0AE55B2402F8E6F55075330280037523
:081A70003303E4F549F53422CB
:101CD100EF2402F8E624BD601424F17018EF240308
:101CE100F8E6F550E4F533F54975340222E4F533AD
:061CF100F54975340322E1
:101B3A00E4F55B1216B750258009AF5BEF3395E0E9
:101B4A004F7012789AE6FF7874E6FD121D1DEF5465
:101B5A0004F55B80E5789AE6FF789780067899E63F
:081B6A00FF7896E6FD12185108
:011B72002250
:101D4300EF04F8E624BD601424F17018EF2402F8C0
:101D5300E6F550E4F533754902F53422E4F53375BD
:051D63004903F53422E4
:10178C00EF2402F8E624B0601824FC6024240E70C8
:10179C0052753304E4F549F5347BFF7A0F79CB802D
:1017AC001E753301E4F549F5347BFF7A0F79CF8050
:1017BC000E753305E4F549F5347BFF7A0F79D37D4B
:1017CC0003121C5B121E0A7BFF7A0F793D7D0312FC
:1017DC001C5B121E0A7BFF7A0F792B7D05121C5B9A
:0417EC00121E0A229D
:101C3300EF04F8E6B444207899E6FF7882E6FD12D3
:101C43001D1D8F5B7BFF7A0F79D77D03121C5BAF62
:071C53005B121E1F121E0AA6
:011C5A002267
:100D4C00755B00755C03E4F55DAF5DEF3395E0FE1C
:100D5C00C3EF955CE55B6480F8EE64809840030219
:100D6C000F28900FF275F015EF1204BBEE75F0150D
:100D7C00A42583F583E493FEFD3395E0FCD3ED9439
:100D8C0001EC648094805003020E75EFFD3395E006
:100D9C00FC900FF075F015ED1204BBEC75F015A47A
:100DAC002583F583E493FF900FF175F015ED120494
:100DBC00BBEC75F015A42583F583E493FD8E6A7B5B
:100DCC00007A00795E121AFDE55DFD3395E0FC902A
:100DDC00100575F015ED1204BBEC75F015A4258308
:100DEC00F583E493FF90100675F015ED1204BBEC3F
:100DFC0075F015A42583F583E493FDE55DFB339530
:100E0C00E0FA90100775F015EB1204BBEA75F015BB
:100E1C00A42583F583E493F56A7B007A007961124B
:100E2C001AFDAF5DEF3395E0FE7C007D1512047664
:100E3C0074F32FF9740F3EFA7BFF7F5E121B734025
:100E4C0003020F23AF5DEF3395E0FE7C007D15129E
:100E5C00047674082FF974103EFA7BFF7F61121B25
:100E6C00735003020F1AAF5D22E55DFD3395E0FC74
:100E7C00900FF075F015ED1204BBEC75F015A42570
:100E8C0083F583E493FF900FF175F015ED1204BB1D
:100E9C00EC75F015A42583F583E493FD121D1D8FCD
:100EAC0064E55DFD3395E0FC90100575F015ED12D1
:100EBC0004BBEC75F015A42583F583E493FF901027
:100ECC000675F015ED1204BBEC75F015A42583F531
:100EDC0083E493FD121D1DE55DFD3395E0FC900F41
:100EEC00F375F015ED1204BBEC75F015A42583F524
:100EFC0083E493B5642190100875F015ED1204BBD2
:100F0C00EC75F015A42583F583E493B50706E55D30
:0E0F1C002402FF22AF5D22055D020D557FFF0E
:010F2A0022A4
:061B73008B658A6689679C
:101B7900756801E4FEC3E5686480F8EE64809850F6
:101B89001FAB65AA66A967EEFD3395E08D82F583E3
:101B9900120415FDEF2EF8ED666002C3220E80D502
:011BA900D368
:011BAA002218
:1016B700756AFF756B0F756C35756D07AB46AA4775
:0216C700A94830
:0616C9008B678A68896945
:1016CF007F03D3EF6480F8E56D64809840028F6DDF
:0E16DF00E4FFC3E56D6480F8EF64809850333B
:1016ED00EFFD3395E0FCE5692DF9E5683C85676E06
:1016FD00F56F8970AB6AAA6BA96C8D828C8312040D
:10170D0015FEAB6EAA6FA9701203FC6E6002C322A8
:04171D000F80C1D3A5
:0117210022A5
:101354001216B74003021406789AE6FF7880E6FD79
:101364007B051217F07899E6FF788DE6FD7B101265
:1013740017F07899E6FF788EE6FD7B201217F07857
:1013840099E6FF7890E6FDE4FB1217F07899E6FF02
:101394007891E6FDE4FB1217F0789AE6FF788CE684
:1013A400FD7BC01217F0789AE6FF787EE6FDE4FB39
:1013B4001217F0789AE6FF787BE6FD7B381217F077
:1013C400789AE6FF7884E6FD7BC01217F0789AE6F7
:1013D400FF787CE6FD7B381217F0789AE6FF787D7B
:1013E400E6FD7BC01217F0789AE6FF7881E6FD7B74
:1013F4001A1217F07BFF7A0F79DB7D03121C5B1244
:031404001E0A229B
:0B1E0A007BFF7A0F79DF7D02021C5B7A
:030000000214B82F
:0C14B800787FE4F6D8FD7581D30214FFA4
:031DD500010F00FB
:101BAB008E628F63121D907FA0121ABEE562FF1228
:101BBB001ABEAF63E563121ABE121D907FA1121AF3
:101BCB00BE121CAA780FA607D207121DB0121DE673
:051BDB00780FE6FF2277
:101CF7008E668F678D68121E46121D907FA0121A7E
:101D0700BEE566FF121ABEAF67E567121ABEAF6877
:061D1700121ABE021DE6D7
:080003004C534D394453310008
:1011E300756AFF756B00756C03756D07AB46AA478F
:1011F300A9481216C9400302129D7899763878855A
:101203007628788776297886762A7888762B78895F
:10121300762C788A762D78737627788D7620788E5B
:101223007621788F76227890762378917624788247
:10123300760F789A76D478757618787776197876E3
:10124300761A7879761B7878761C787A761D787496
:1012530076177897761578987616788C7610787E48
:101263007613787B761E787C761F787D7620787F60
:10127300762178807622788176237884762E789BFF
:101283007628789E7629789D762A78A1762B78A081
:0B129300762C78A3762D7883760F224E
:0E1DBE004C534D3944533100580059005A001F
:051D6800121D6DD28088
:0F1D6D00E4FFFE000FBF00010EEF64024E70F4A2
:011D7C002244
:051E4100D281D28022D5
:051E4600D291D29022B0
:0D1DD900D281121D68C281121D6DC28022D0
:101D9000D291121D6DD290121D6DC291121D6DC295
:021DA00090228F
:081E3200C281121D68D2812259
:0D1DE600C291121D6DD290121D6DD291227E
:071A7800121DD9EB4401FF30
:021A7F00AD07B1
:101A8100E4FCECC394087480948050227801AF0583
:101A9100EF08800123D8FDFD30E004D2818002C22D
:101AA10081D280121D6DC280121D6D0C80D4121D59
:0C1AB10068A2819209C280121D6DA2097A
:011ABD002206
:021ABE00AD0772
:101AC000E4FCECC394087480948050227801AF0544
:101AD000EF08800123D8FDFD30E004D2918002C2DE
:101AE00091D290121D6DC290121D6D0C80D4D290B7
:0C1AF000121D6DA2919207C29000A20787
:011AFC0022C7
:101C8300E4FDFCECC39408748094805017D2801256
:101C93001D6DED25E0FD308103430501C280121D5A
:061CA3006D0C80DFAF05AF
:011CA9002218
:101CAA00E4FDFCECC39408748094805017D290121F
:101CBA001D6DED25E0FD309103430501C290121D13
:061CCA006D0C80DFAF0588
:011CD00022F1
:0E1DA200A2099281D280121D6DC280D28122D0
:0E1DB000A2079291D290121D6DC290D2912284
:0617F0008F5C8D5D8B5E35
:1017F600E4FBEBC3940A748094805033121DD9AF76
:101806005C121A7F92073007028016AF5D121A7FAC
:101816009207300702800AAF5E121A7F92073007DE
:1018260005121E328006121E323007030B80C37F5C
:101836000A7E00121D7D121DD9AF5C121A7FAF5DA4
:0B184600121A7FAF5E121A7F021E32E2
:041D1D00AB07AA0561
:101D2100E4FD121DD9AF03121A7FAF02121A7F12FE
:101D31001A78121C83AD07D209121DA2121E32AFEE
:011D4100059C
:011D4200227E
:04110F00AB07AA057B
:10111300E4F55B121DD9AF03121A7FAF02121A7FD7
:10112300121A789208756AFF756B1D756CBE756D22
:1011330007AB46AA47A9481216C9505F121C838FF2
:1011430039C209121DA2121C838F38C209121DA2B3
:10115300121C838F3BC209121DA2121C838F3AC239
:1011630009121DA2121C838F3DC209121DA2121C5B
:10117300838F3CD209121DA22007207B007A0079BD
:10118300381217227B007A00793A1217227B007AF1
:1011930000793C1217227F031218AC121E327BFF18
:1011A3007A1D79C67D01121C5B7B007A0079387D3C
:1011B30002121C5B7BFF7A1D79C87D01121C5B7BCD
:1011C300007A00793A7D02121C5B7BFF7A1D79CA93
:1011D3007D01121C5B7B007A00793C7D02021C5B63
:04185100AB07AA0532
:10185500E4F55C121DD9AF03121A7FAF02121A7F8D
:10186500121A78756AFF756B1D756CBE756D07ABC1
:1018750046AA47A9481216C95014121C838F37C2AD
:1018850009121DA2121C838F36D209121DA2121E27
:10189500327B007A0079357D03121C5B7BFF7A0F62
:0718A50079DF7D02021C5BEC
:04140700AB07AA0580
:10140B00E4F559121DD9AF03121A7FAF02121A7FDE
:10141B00121A789207756AFF756B1D756CBE756D28
:10142B0007AB46AA47A9481216C9503C121C838F1A
:10143B004BC209121DA2121C838F4AC209121DA294
:10144B00121C838F4DC209121DA2121C838F4CC21A
:10145B0009121DA2121C838F4FC209121DA2121C4E
:10146B00838F4ED209121DA2121E327BFF7A1D7979
:10147B00C67D01121C5B7B007A00794A7D02121C2F
:10148B005B7BFF7A1D79C87D01121C5B7B007A00A8
:10149B00794C7D02121C5B7BFF7A1D79CA7D011290
:0D14AB001C5B7B007A00794E7D02021C5B09
:04129E00AB07AA05EB
:1012A200E4F559121DD9AF03121A7FAF02121A7F49
:1012B200121A789207756AFF756B1D756CBE756D93
:1012C20007AB46AA47A9481216C95041121C838F80
:1012D20040C209121DA2121C838F3FC209121DA215
:1012E200121C838F42C209121DA2121C838F41C29B
:1012F20009121DA2121C838F44C209121DA2121CC4
:10130200838F43D209121DA27F021218AC121E3221
:101312007BFF7A1D79C67D01121C5B7B007A007906
:101322003F7D02121C5B7BFF7A1D79C87D01121C76
:101332005B7B007A0079417D02121C5B7BFF7A1D88
:1013420079CA7D01121C5B7B007A0079437D02021F
:021352001C5B22
:0A1AFD008F658D668B678A68896922
:101B0700E4F56BC3E56A6480F8E56B64809850225E
:101B1700E566256BFDAF65121D1DAB67AA68A96950
:101B2700E56BFD3395E08D82F583EF120454056B69
:021B370080D15B
:011B39002289
:051E4B00EFFEEDFF2297
:061722008B5C8A5D895E0C
:101728001203FCFF900001120415FD121E4B8E5F80
:101738008F60756AFF756B1D756CBE756D07AB465E
:10174800AA47A9481216C95012855F61856062755B
:10175800661275656F7564CB75633EAC61AD62ECFE
:10176800120342AB66AA65A964A86312011E12039C
:101778007BAB5CAA5DA95E900001EF120454EEFFFA
:04178800EF02044226
:1018AC00EFFD3395E0FCED64014C6006ED64034CF8
:1018BC007016E53970047E018008E539F404F539B9
:1018CC00E4FEE538F42EF538EFFD3395E0FCED64DD
:1018DC00024C6006ED64034C7016E53D70047E010D
:1018EC008008E53DF404F53DE4FEE53CF42EF53CC2
:0118FC0022C9
:101D7D00E4FDFCC3ED9FEC9E5008000DBD00010C71
:021D8D0080F1E3
:011D8F002231
:101C0A00200625C2AC200508D205C2998F998016F4
:101C1A00AE0B050BEE541F24B4F8A607E50B6509B5
:091C2A00541F7002D206D2AC2254
:0A1E1F00AD072006FDAF05021C0A06
:081C5B008B5D8A5E895FAC0518
:101C6300E4F560EC6019AB5DAA5EA95FAF60056047
:0F1C73008F82758300120415FF121E1F1C80E460
:011C8200223F
:031E5000AF0A22B4
:071E3A0074A42FF8E6FF225B
:030023000216467C
:10164600C0E0C0D075D010309844C2ACE508641034
:101656006035AF08050874A42FF8A69974A3250869
:10166600F8E6FF3395E0FEEF640A4E701D74A2257E
:1016760008F8E6FF3395E0FEEF640D4E700CD204D9
:1016860085080AF5088003750800C298D2AC30991F
:101696001BC299E509650B6011AF090509EF541FD7
:1016A60024B4F8E6F599C2068002C205D0D0D0E08F
:0116B6003201
:04194D008F5B8D5CC3
:10195100AE5FAD5EAC5D8560658E648D638C62E467
:10196100F561E561FD3395E0FCC3ED9404EC648021
:1019710094805026E55C75F004A4FBAAF0E55B7544
:10198100F00CA42BFFE5F03ACF2DCF3CFE74622D75
:0A199100F8E6FD121CF7056180C89E
:01199B002229
:0419E7008F5B8D5C29
:1019EB00E4F55DE55DFD3395E0FCC3ED9404EC643B
:1019FB008094805027E55C75F004A4FBAAF0E55BAE
:101A0B0075F00CA42BFFE5F03ACF2DCF3CFE121B4B
:101A1B00AB745E255DF8A607055D80C7AF61AE6050
:041A2B00AD5FAC5EA1
:011A2F002294
:10199C007B0A7A00A907E93395E0C36480948050F0
:1019AC0004E4FEFF22E9FD3395E04D7004FE7F0157
:1019BC0022A907E9FF3395E0FED3EF9401EE648092
:1019CC00948040127C007D0AAF03AE02120476AA0A
:0A19DC0006AB071980DDAE02AF0371
:0119E60022DE
:08094E008B5B8A5C895D8D5E04
:10095600E4F5607561FF7562FF756301F567F5661D
:10096600F565F564AF5EEF3395E08F82F58312048B
:1009760015FFB42D077563FF055E8009EFB42B05DF
:10098600756301055E855E60D3E55F6480F8E560AA
:10099600648098506EAB5BAA5CA95DAF60EF33953F
:1009A600E08F82F583120415FFB43B1A856061E57A
:1009B60062FD3395E0FCBCFF07BDFF04AE6180021B
:1009C600AE628E62803DEFB42E058560628030ABEC
:1009D6005BAA5CA95DAF60EF3395E08F82F5831269
:1009E6000415FF3395E0FEC3EF9430EE64809480E7
:1009F600401ED3EF9439EE64809480400280110546
:100A0600608085E561FB3395E0FABAFF07BBFF041A
:100A16007F008015AF62EF3395E0FEC3EB9FFFEAE0
:100A26009EFEEF64014E7008FF7EC07D797CC42275
:100A3600855E60C3E5626480F8E560648098505C1A
:100A4600AB67AA66A965A864C000C001C002C0035E
:100A5600C3E562956014FF12199CAB5BAA5CA95DA5
:100A6600AD60ED3395E08D82F583120415FD339567
:100A7600E0FCED24D0FDEC34FFFC120476AC06ADB0
:100A860007EC120342D003D002D001D00012002D91
:100A96008F678E668D658C6405608097E56204F5C8
:100AA60060C3E5616480F8E5606480984003020BEA
:100AB60038AB67AA66A965A864C000C001C002C0B9
:100AC60003C3E5609562FF12199CAC06AD07EC12F4
:100AD6000342A804A905AA06AB07E4FFFE7D807CB5
:100AE6003F120227C004C005C006C007AB5BAA5C64
:100AF600A95DAF60EF3395E08F82F583120415FF91
:100B06003395E0FEEF24D0FDEE34FFFC120342D015
:100B160003D002D001D00012011ED003D002D001B2
:100B2600D00012002D8F678E668D658C640560027D
:100B36000AA7AB67AA66A965A864C000C001C0027F
:100B4600C003AC63EC120347D003D002D001D0003F
:0B0B560012011E8F678E668D658C6497
:010B61002271
:100026000203E7E86480F8E933E83360110460F01E
:10003600ED33EC337009E8FCE9FDEAFEEBFF220440
:1000460060DED3EB9FEA9EE99DE8C2E78CF0C2F73B
:1000560095F0400CE8CCF8E9CDF9EACEFAEBCFFB07
:100066001203B285D0F05804700320D5B3E80470AB
:10007600075002B2D50203F192D5EC0460F7E4CC46
:10008600C0E0C398F8603B94186008400DD0E0FBD0
:100096000203C9E4FBFAC9FC8028E830E406E4C997
:1000A600FBE4CAFCE830E305E4C9CACBFCE8540724
:1000B6006010F8C3E913F9EA13FAEB13FBEC13FC2F
:1000C600D8F130F52FC3E49CFCEF9BFFEE9AFEEDD2
:1000D60099FDD0E0FBEF4E4D4C701222DB0302037C
:1000E600EEEC2CFCEF33FFEE33FEED33FDED30E7A7
:1000F600EB0203C9EF2BFFEE3AFEED39FDD0E0FB34
:1001060050130BBB00030203F1ED13FDEE13FEEFDC
:0801160013FFEC13FC0203C906
:10011E00EC4D6011E8497017ED33EC3304600DE4DB
:10012E00FCFFFEFD22E933E8330470F80203E71208
:10013E0003B258046009E4CC248150062850090209
:10014E0003F12840030203EEC0E0EB4A7044B9808D
:10015E0006D0E0FB0203DDEF4E701CBD8008EBFF06
:10016E00EAFEE9FD80EBE98DF0A4FEE5F002020760
:10017E00E9CDF9EAFEEBFFEF89F0A4FCE5F0CE89BC
:10018E00F0A42EFFE435F0CD89F0A42DFEE435F079
:10019E008067EF4E7005BD80D780C3EF8BF0A4ACA7
:1001AE00F0EE8BF0A42CFCE435F0F8EF8AF0A42CE2
:1001BE00E5F038FCE433CB8DF0A42CFCE5F03BF8F5
:1001CE00EE8AF0A42CFCE5F038F8E433CF89F0A4E5
:1001DE002CFCE5F038CF3400CE89F0A42FFFE5F0EB
:1001EE003EFEE433C98DF0A42EFEE5F039CD8AF043
:1001FE00A42FFFE5F03EFEE43DFD33D0E0FB5007BB
:10020E000BBB000F0203F1EC2CFCEF33FFEE33FEC1
:06021E00ED33FD0203C9EF
:100224000203F1EC5D046005E8590470030203E77E
:100234001203B2580460F6EC4860F2EC7004FDFE60
:10024400FF22C860DB2481C85009C39860025006AD
:100254000203EE9850CAF582E9294B4A7005AB8235
:100264000203DD75F0007C1A7880C3EF9BEE9AEDF3
:1002740099400DC3EF9BFFEE9AFEED99FDE842F025
:10028400DC23ACF0D0E0FFD0E0FED0E0FDAB822078
:10029400E7101BEB60BAEC2CFCEF33FFEE33FEED02
:1002A40033FD0203C9E803F830E705C0F075F00038
:1002B400EF2FFFEE33FEED33FD40B830E7C280AAE6
:1002C40074F8CC6480CCC86480C8F58204604FC3E1
:1002D400EB9FF5F0EA9E42F0E99D42F0E89C45F080
:1002E400603C501DE5825FFFE582D313CB5BCBF40A
:1002F4002B5582FB50280ABA002409B90020088033
:100304001DE5825BFBE582D313CF5FCFF4C3132FCC
:100314005582FF50090EBE00050DBD00010CC3EB54
:100324009FF5F0EA9E42F0E99D42F0E89C45F060BA
:0903340007CC4820E701B3EC22DC
:10033D0075F020800E75F010800575F0087D007E3B
:10034D00007F003392D530D503120488EC33401072
:10035D00EF33FFEE33FEED33FDEC33FCD5F0ED2244
:0E036D00E5F0247EA2D513CC92E7CDCEFF2280
:10037B00EDD2E7CD33EC3392D524814006E4FFFE7A
:10038B00FDFC22FCE4CFCECDCC24E0501174FF80D9
:10039B00EDC3CC13CCCD13CDCE13CECF13CF047076
:0703AB00F030D5DE020488EA
:1003B200E9D2E7C933E833F892D5EDD2E7CD33EC91
:0703C20033FC5002B2D5220A
:1003C900EC30E7100FBF000C0EBE00080DBD000495
:1003D9000BEB6014A2D5EB13FCED92E7FD2274FF41
:1003E900FCFDFEFF22E480F8A2D574FF13FC7D809A
:0303F900E480EFAE
:1014C4000204EDE493A3F8E493A34003F68001F24D
:1014D40008DFF48029E493A3F85407240CC8C33329
:1014E400C4540F4420C8834004F456800146F6DFF8
:1014F400E4800B0102040810204080901DCCE47E9F
:10150400019360BCA3FF543F30E509541FFEE493EC
:10151400A360010ECF54C025E060A840B8E493A3B3
:10152400FAE493A3F8E493A3C8C582C8CAC583CADE
:10153400F0A3C8C582C8CAC583CADFE9DEE780BE96
:011DD800000A
:1003FC00BB010689828A83E0225002E722BBFE02FF
:09040C00E32289828A83E4932231
:10041500BB010CE58229F582E5833AF583E022509C
:1004250006E92582F8E622BBFE06E92582F8E222E6
:0D043500E58229F582E5833AF583E4932200
:10044200BB010689828A83F0225002F722BBFE0199
:02045200F32293
:10045400F8BB010DE58229F582E5833AF583E8F0DE
:10046400225006E92582C8F622BBFE05E92582C88A
:02047400F22272
:10047600EF8DF0A4A8F0CF8CF0A428CE8DF0A42E9A
:02048600FE2254
:0E048800C3E49FFFE49EFEE49DFDE49CFC2285
:0C049600E6FC08E6FD08E6FE08E6FF2292
:0D04A200E6FB08E6F908E6FA08E6CBF822CA
:0C04AF00ECF608EDF608EEF608EFF62279
:0C04BB00A42582F582E5F03583F583224C
:1004C700D083D082F8E4937012740193700DA3A3C4
:1004D70093F8740193F5828883E4737402936860D8
:0604E700EFA3A3A380DFD8
:00000001FF
